{
  "_format": "hh-sol-artifact-1",
  "contractName": "PaymentContract",
  "sourceName": "contracts/PaymentContract.sol",
  "abi": [
    {
      "inputs": [
        {
          "internalType": "address",
          "name": "_platformWallet",
          "type": "address"
        }
      ],
      "stateMutability": "nonpayable",
      "type": "constructor"
    },
    {
      "inputs": [],
      "name": "EnforcedPause",
      "type": "error"
    },
    {
      "inputs": [],
      "name": "ExpectedPause",
      "type": "error"
    },
    {
      "inputs": [
        {
          "internalType": "address",
          "name": "owner",
          "type": "address"
        }
      ],
      "name": "OwnableInvalidOwner",
      "type": "error"
    },
    {
      "inputs": [
        {
          "internalType": "address",
          "name": "account",
          "type": "address"
        }
      ],
      "name": "OwnableUnauthorizedAccount",
      "type": "error"
    },
    {
      "inputs": [],
      "name": "ReentrancyGuardReentrantCall",
      "type": "error"
    },
    {
      "anonymous": false,
      "inputs": [
        {
          "indexed": true,
          "internalType": "address",
          "name": "owner",
          "type": "address"
        },
        {
          "indexed": true,
          "internalType": "address",
          "name": "platformWallet",
          "type": "address"
        },
        {
          "indexed": false,
          "internalType": "uint256",
          "name": "feePercent",
          "type": "uint256"
        }
      ],
      "name": "ContractInitialized",
      "type": "event"
    },
    {
      "anonymous": false,
      "inputs": [
        {
          "indexed": true,
          "internalType": "uint256",
          "name": "paymentId",
          "type": "uint256"
        },
        {
          "indexed": true,
          "internalType": "address",
          "name": "raisedBy",
          "type": "address"
        },
        {
          "indexed": false,
          "internalType": "uint256",
          "name": "timestamp",
          "type": "uint256"
        }
      ],
      "name": "DisputeRaised",
      "type": "event"
    },
    {
      "anonymous": false,
      "inputs": [
        {
          "indexed": true,
          "internalType": "uint256",
          "name": "paymentId",
          "type": "uint256"
        },
        {
          "indexed": false,
          "internalType": "address",
          "name": "winner",
          "type": "address"
        },
        {
          "indexed": false,
          "internalType": "uint256",
          "name": "timestamp",
          "type": "uint256"
        }
      ],
      "name": "DisputeResolved",
      "type": "event"
    },
    {
      "anonymous": false,
      "inputs": [
        {
          "indexed": true,
          "internalType": "address",
          "name": "previousOwner",
          "type": "address"
        },
        {
          "indexed": true,
          "internalType": "address",
          "name": "newOwner",
          "type": "address"
        }
      ],
      "name": "OwnershipTransferred",
      "type": "event"
    },
    {
      "anonymous": false,
      "inputs": [
        {
          "indexed": false,
          "internalType": "address",
          "name": "account",
          "type": "address"
        }
      ],
      "name": "Paused",
      "type": "event"
    },
    {
      "anonymous": false,
      "inputs": [
        {
          "indexed": true,
          "internalType": "uint256",
          "name": "paymentId",
          "type": "uint256"
        },
        {
          "indexed": true,
          "internalType": "uint256",
          "name": "orderId",
          "type": "uint256"
        },
        {
          "indexed": true,
          "internalType": "address",
          "name": "buyer",
          "type": "address"
        },
        {
          "indexed": false,
          "internalType": "address",
          "name": "seller",
          "type": "address"
        },
        {
          "indexed": false,
          "internalType": "uint256",
          "name": "amount",
          "type": "uint256"
        }
      ],
      "name": "PaymentCreated",
      "type": "event"
    },
    {
      "anonymous": false,
      "inputs": [
        {
          "indexed": true,
          "internalType": "uint256",
          "name": "paymentId",
          "type": "uint256"
        },
        {
          "indexed": false,
          "internalType": "uint256",
          "name": "timestamp",
          "type": "uint256"
        }
      ],
      "name": "PaymentEscrowed",
      "type": "event"
    },
    {
      "anonymous": false,
      "inputs": [
        {
          "indexed": true,
          "internalType": "uint256",
          "name": "paymentId",
          "type": "uint256"
        },
        {
          "indexed": false,
          "internalType": "uint256",
          "name": "amount",
          "type": "uint256"
        },
        {
          "indexed": false,
          "internalType": "uint256",
          "name": "timestamp",
          "type": "uint256"
        }
      ],
      "name": "PaymentRefunded",
      "type": "event"
    },
    {
      "anonymous": false,
      "inputs": [
        {
          "indexed": true,
          "internalType": "uint256",
          "name": "paymentId",
          "type": "uint256"
        },
        {
          "indexed": false,
          "internalType": "uint256",
          "name": "amount",
          "type": "uint256"
        },
        {
          "indexed": false,
          "internalType": "uint256",
          "name": "timestamp",
          "type": "uint256"
        }
      ],
      "name": "PaymentReleased",
      "type": "event"
    },
    {
      "anonymous": false,
      "inputs": [
        {
          "indexed": false,
          "internalType": "uint256",
          "name": "oldFee",
          "type": "uint256"
        },
        {
          "indexed": false,
          "internalType": "uint256",
          "name": "newFee",
          "type": "uint256"
        },
        {
          "indexed": false,
          "internalType": "uint256",
          "name": "timestamp",
          "type": "uint256"
        }
      ],
      "name": "PlatformFeeChanged",
      "type": "event"
    },
    {
      "anonymous": false,
      "inputs": [
        {
          "indexed": false,
          "internalType": "uint256",
          "name": "oldFee",
          "type": "uint256"
        },
        {
          "indexed": false,
          "internalType": "uint256",
          "name": "newFee",
          "type": "uint256"
        }
      ],
      "name": "PlatformFeeUpdated",
      "type": "event"
    },
    {
      "anonymous": false,
      "inputs": [
        {
          "indexed": true,
          "internalType": "address",
          "name": "oldWallet",
          "type": "address"
        },
        {
          "indexed": true,
          "internalType": "address",
          "name": "newWallet",
          "type": "address"
        }
      ],
      "name": "PlatformWalletUpdated",
      "type": "event"
    },
    {
      "anonymous": false,
      "inputs": [
        {
          "indexed": false,
          "internalType": "address",
          "name": "account",
          "type": "address"
        }
      ],
      "name": "Unpaused",
      "type": "event"
    },
    {
      "stateMutability": "payable",
      "type": "fallback"
    },
    {
      "inputs": [],
      "name": "MAX_FEE_PERCENT",
      "outputs": [
        {
          "internalType": "uint256",
          "name": "",
          "type": "uint256"
        }
      ],
      "stateMutability": "view",
      "type": "function"
    },
    {
      "inputs": [
        {
          "internalType": "uint256",
          "name": "_paymentId",
          "type": "uint256"
        }
      ],
      "name": "canAutoRelease",
      "outputs": [
        {
          "internalType": "bool",
          "name": "",
          "type": "bool"
        }
      ],
      "stateMutability": "view",
      "type": "function"
    },
    {
      "inputs": [
        {
          "internalType": "uint256",
          "name": "_paymentId",
          "type": "uint256"
        }
      ],
      "name": "cancelPayment",
      "outputs": [],
      "stateMutability": "nonpayable",
      "type": "function"
    },
    {
      "inputs": [
        {
          "internalType": "uint256",
          "name": "_orderId",
          "type": "uint256"
        },
        {
          "internalType": "address",
          "name": "_seller",
          "type": "address"
        },
        {
          "internalType": "uint256",
          "name": "_releaseTime",
          "type": "uint256"
        }
      ],
      "name": "createPayment",
      "outputs": [
        {
          "internalType": "uint256",
          "name": "",
          "type": "uint256"
        }
      ],
      "stateMutability": "payable",
      "type": "function"
    },
    {
      "inputs": [],
      "name": "emergencyWithdraw",
      "outputs": [],
      "stateMutability": "nonpayable",
      "type": "function"
    },
    {
      "inputs": [
        {
          "internalType": "uint256",
          "name": "_paymentId",
          "type": "uint256"
        }
      ],
      "name": "getPayment",
      "outputs": [
        {
          "components": [
            {
              "internalType": "uint256",
              "name": "paymentId",
              "type": "uint256"
            },
            {
              "internalType": "uint256",
              "name": "orderId",
              "type": "uint256"
            },
            {
              "internalType": "address",
              "name": "buyer",
              "type": "address"
            },
            {
              "internalType": "address",
              "name": "seller",
              "type": "address"
            },
            {
              "internalType": "uint256",
              "name": "amount",
              "type": "uint256"
            },
            {
              "internalType": "enum PaymentContract.PaymentStatus",
              "name": "status",
              "type": "uint8"
            },
            {
              "internalType": "uint256",
              "name": "createdAt",
              "type": "uint256"
            },
            {
              "internalType": "uint256",
              "name": "releaseTime",
              "type": "uint256"
            },
            {
              "internalType": "bool",
              "name": "disputed",
              "type": "bool"
            },
            {
              "internalType": "uint256",
              "name": "feePercent",
              "type": "uint256"
            }
          ],
          "internalType": "struct PaymentContract.Payment",
          "name": "",
          "type": "tuple"
        }
      ],
      "stateMutability": "view",
      "type": "function"
    },
    {
      "inputs": [
        {
          "internalType": "uint256",
          "name": "_orderId",
          "type": "uint256"
        }
      ],
      "name": "getPaymentByOrder",
      "outputs": [
        {
          "components": [
            {
              "internalType": "uint256",
              "name": "paymentId",
              "type": "uint256"
            },
            {
              "internalType": "uint256",
              "name": "orderId",
              "type": "uint256"
            },
            {
              "internalType": "address",
              "name": "buyer",
              "type": "address"
            },
            {
              "internalType": "address",
              "name": "seller",
              "type": "address"
            },
            {
              "internalType": "uint256",
              "name": "amount",
              "type": "uint256"
            },
            {
              "internalType": "enum PaymentContract.PaymentStatus",
              "name": "status",
              "type": "uint8"
            },
            {
              "internalType": "uint256",
              "name": "createdAt",
              "type": "uint256"
            },
            {
              "internalType": "uint256",
              "name": "releaseTime",
              "type": "uint256"
            },
            {
              "internalType": "bool",
              "name": "disputed",
              "type": "bool"
            },
            {
              "internalType": "uint256",
              "name": "feePercent",
              "type": "uint256"
            }
          ],
          "internalType": "struct PaymentContract.Payment",
          "name": "",
          "type": "tuple"
        }
      ],
      "stateMutability": "view",
      "type": "function"
    },
    {
      "inputs": [],
      "name": "getTotalPayments",
      "outputs": [
        {
          "internalType": "uint256",
          "name": "",
          "type": "uint256"
        }
      ],
      "stateMutability": "view",
      "type": "function"
    },
    {
      "inputs": [
        {
          "internalType": "address",
          "name": "_user",
          "type": "address"
        }
      ],
      "name": "getUserPaymentCount",
      "outputs": [
        {
          "internalType": "uint256",
          "name": "",
          "type": "uint256"
        }
      ],
      "stateMutability": "view",
      "type": "function"
    },
    {
      "inputs": [
        {
          "internalType": "address",
          "name": "_user",
          "type": "address"
        },
        {
          "internalType": "uint256",
          "name": "_offset",
          "type": "uint256"
        },
        {
          "internalType": "uint256",
          "name": "_limit",
          "type": "uint256"
        }
      ],
      "name": "getUserPayments",
      "outputs": [
        {
          "internalType": "uint256[]",
          "name": "",
          "type": "uint256[]"
        },
        {
          "internalType": "uint256",
          "name": "",
          "type": "uint256"
        }
      ],
      "stateMutability": "view",
      "type": "function"
    },
    {
      "inputs": [
        {
          "internalType": "uint256",
          "name": "",
          "type": "uint256"
        }
      ],
      "name": "orderToPayment",
      "outputs": [
        {
          "internalType": "uint256",
          "name": "",
          "type": "uint256"
        }
      ],
      "stateMutability": "view",
      "type": "function"
    },
    {
      "inputs": [],
      "name": "owner",
      "outputs": [
        {
          "internalType": "address",
          "name": "",
          "type": "address"
        }
      ],
      "stateMutability": "view",
      "type": "function"
    },
    {
      "inputs": [],
      "name": "pause",
      "outputs": [],
      "stateMutability": "nonpayable",
      "type": "function"
    },
    {
      "inputs": [],
      "name": "paused",
      "outputs": [
        {
          "internalType": "bool",
          "name": "",
          "type": "bool"
        }
      ],
      "stateMutability": "view",
      "type": "function"
    },
    {
      "inputs": [
        {
          "internalType": "uint256",
          "name": "",
          "type": "uint256"
        }
      ],
      "name": "payments",
      "outputs": [
        {
          "internalType": "uint256",
          "name": "paymentId",
          "type": "uint256"
        },
        {
          "internalType": "uint256",
          "name": "orderId",
          "type": "uint256"
        },
        {
          "internalType": "address",
          "name": "buyer",
          "type": "address"
        },
        {
          "internalType": "address",
          "name": "seller",
          "type": "address"
        },
        {
          "internalType": "uint256",
          "name": "amount",
          "type": "uint256"
        },
        {
          "internalType": "enum PaymentContract.PaymentStatus",
          "name": "status",
          "type": "uint8"
        },
        {
          "internalType": "uint256",
          "name": "createdAt",
          "type": "uint256"
        },
        {
          "internalType": "uint256",
          "name": "releaseTime",
          "type": "uint256"
        },
        {
          "internalType": "bool",
          "name": "disputed",
          "type": "bool"
        },
        {
          "internalType": "uint256",
          "name": "feePercent",
          "type": "uint256"
        }
      ],
      "stateMutability": "view",
      "type": "function"
    },
    {
      "inputs": [],
      "name": "platformFeePercent",
      "outputs": [
        {
          "internalType": "uint256",
          "name": "",
          "type": "uint256"
        }
      ],
      "stateMutability": "view",
      "type": "function"
    },
    {
      "inputs": [],
      "name": "platformWallet",
      "outputs": [
        {
          "internalType": "address",
          "name": "",
          "type": "address"
        }
      ],
      "stateMutability": "view",
      "type": "function"
    },
    {
      "inputs": [
        {
          "internalType": "uint256",
          "name": "_paymentId",
          "type": "uint256"
        }
      ],
      "name": "releasePayment",
      "outputs": [],
      "stateMutability": "nonpayable",
      "type": "function"
    },
    {
      "inputs": [],
      "name": "renounceOwnership",
      "outputs": [],
      "stateMutability": "nonpayable",
      "type": "function"
    },
    {
      "inputs": [
        {
          "internalType": "uint256",
          "name": "_paymentId",
          "type": "uint256"
        }
      ],
      "name": "requestRefund",
      "outputs": [],
      "stateMutability": "nonpayable",
      "type": "function"
    },
    {
      "inputs": [
        {
          "internalType": "uint256",
          "name": "_paymentId",
          "type": "uint256"
        },
        {
          "internalType": "bool",
          "name": "refundBuyer",
          "type": "bool"
        }
      ],
      "name": "resolveDispute",
      "outputs": [],
      "stateMutability": "nonpayable",
      "type": "function"
    },
    {
      "inputs": [
        {
          "internalType": "uint256",
          "name": "_newFee",
          "type": "uint256"
        }
      ],
      "name": "setPlatformFee",
      "outputs": [],
      "stateMutability": "nonpayable",
      "type": "function"
    },
    {
      "inputs": [
        {
          "internalType": "address",
          "name": "_newWallet",
          "type": "address"
        }
      ],
      "name": "setPlatformWallet",
      "outputs": [],
      "stateMutability": "nonpayable",
      "type": "function"
    },
    {
      "inputs": [
        {
          "internalType": "address",
          "name": "newOwner",
          "type": "address"
        }
      ],
      "name": "transferOwnership",
      "outputs": [],
      "stateMutability": "nonpayable",
      "type": "function"
    },
    {
      "inputs": [],
      "name": "unpause",
      "outputs": [],
      "stateMutability": "nonpayable",
      "type": "function"
    },
    {
      "inputs": [
        {
          "internalType": "address",
          "name": "",
          "type": "address"
        },
        {
          "internalType": "uint256",
          "name": "",
          "type": "uint256"
        }
      ],
      "name": "userPayments",
      "outputs": [
        {
          "internalType": "uint256",
          "name": "",
          "type": "uint256"
        }
      ],
      "stateMutability": "view",
      "type": "function"
    },
    {
      "stateMutability": "payable",
      "type": "receive"
    }
  ],
  "bytecode": "0x60803461014c57601f611d0c38819003918201601f19168301916001600160401b038311848410176101515780849260209460405283398101031261014c57516001600160a01b03908181169081900361014c57600160005533156101335760018054336001600160a01b03198083168217909355604051949091167f8be0079c531659141344cd1fd0a4f28419497f9722a3daafe3b4186f6b6457e0600080a3600260065581156100f15781906007541617600755604051600281527f3aea040f0a97794427640abb0b0b8a2ab94ef5b41307efa3d0ecc48d1e1ac1f960203392a3604051611ba490816101688239f35b62461bcd60e51b835260206004840152601760248401527f496e76616c696420706c6174666f726d2077616c6c65740000000000000000006044840152606483fd5b604051631e4fbdf760e01b815260006004820152602490fd5b600080fd5b634e487b7160e01b600052604160045260246000fdfe60806040526004361015610018575b36611b2957611b29565b60003560e01c8063071642a71461152257806312e8e2c31461144c5780633175d429146113dc5780633280a8361461131757806334b25ee21461114a5780633f4ba83a146110f05780635c975abb146110ca57806367d81740146110ae578063708f29a614611090578063715018a6146110335780638362492f14610ff95780638422927d14610e4c5780638456cb5914610dea57806387d8178914610d3f5780638831e9cf14610c9857806388685cd914610b2f5780638c639a8514610b115780638cfeab3514610ab95780638da5cb5b14610a90578063a4b2409e14610957578063b123e60614610866578063be83b26b1461083a578063db2e21bc146106d5578063e5144c9f146101f2578063f2fde38b146101695763fa2af9da0361000e5734610164576000366003190112610164576007546040516001600160a01b039091168152602090f35b600080fd5b3461016457602036600319011261016457610182611636565b61018a61167a565b6001600160a01b039081169081156101d957600154826001600160601b0360a01b821617600155167f8be0079c531659141344cd1fd0a4f28419497f9722a3daafe3b4186f6b6457e0600080a3005b604051631e4fbdf760e01b815260006004820152602490fd5b6060366003190112610164576024356001600160a01b038116900361016457604480359061021e61177e565b61022661175d565b341561068357683635c9adc5dea00000341161063f576024356001600160a01b031615610602576024356001600160a01b031633146105be57600435156105875742821115610543576301e13380420180421161052d5782116104e957600435600052600460205260406000205461049757506102a46002546116b3565b80600255600654604051926102b8846116c2565b828452600435602085015233604085015260018060a01b03602435166060850152346080850152600160a08501524260c085015260e08401526000610100840152610120830152806000526003602052604060002082518155602083015160018201556002810160018060a01b03604085015116906001600160601b0360a01b9182825416179055600382019060018060a01b0360608601511690825416179055608083015160048201556005810160a0840151906005821015610481576020946009926101209260ff199160ff83835416911617905560c0820151600686015560e08201516007860155600885019060ff61010084015115159183541691161790550151910155600435600052600482528060406000205533600052600582526103e7816040600020611723565b60018060a01b036024351660005260058252610407816040600020611723565b604080516024356001600160a01b0316815234602082015233916004359184917f29f7bb35c75fa86cef92e8cae18f960107f96ab170f4b4daeeb68bb875f56d3691a4807f0fbcac148363a35bd0ca56d1f3f4257e0a2dddc572216514dd85b68a0b969f3b83604051428152a26001600055604051908152f35b634e487b7160e01b600052602160045260246000fd5b6084907f5061796d656e7420616c72656164792065786973747320666f722074686973206040519162461bcd60e51b835260206004840152602560248401528201526437b93232b960d91b6064820152fd5b6064907f52656c656173652074696d6520746f6f2066617220696e2066757475726500006040519162461bcd60e51b835260206004840152601e6024840152820152fd5b634e487b7160e01b600052601160045260246000fd5b6064907f52656c656173652074696d65206d75737420626520696e2066757475726500006040519162461bcd60e51b835260206004840152601e6024840152820152fd5b6064906f125b9d985b1a59081bdc99195c88125160821b6040519162461bcd60e51b83526020600484015260106024840152820152fd5b6064907f427579657220616e642073656c6c65722063616e6e6f742062652073616d65006040519162461bcd60e51b835260206004840152601f6024840152820152fd5b60649075496e76616c69642073656c6c6572206164647265737360501b6040519162461bcd60e51b83526020600484015260166024840152820152fd5b6064907f5061796d656e742065786365656473206d6178696d756d206c696d69740000006040519162461bcd60e51b835260206004840152601d6024840152820152fd5b6084907f5061796d656e7420616d6f756e74206d757374206265206772656174657220746040519162461bcd60e51b8352602060048401526025602484015282015264068616e20360dc1b6064820152fd5b34610164576000366003190112610164576106ee61167a565b6106f6611a1e565b6000600180805b6107a4575b50811561076757546000918291829182916001600160a01b03165af16107266117e6565b501561072e57005b60405162461bcd60e51b815260206004820152601160248201527015da5d1a191c985dd85b0819985a5b1959607a1b6044820152606490fd5b60405162461bcd60e51b81526020600482015260156024820152744e6f20776974686472617761626c652066756e647360581b6044820152606490fd5b6002548111610835578060005260038060205260406000206005918282019182549360ff8516908110156104815786148061081a575b6107f3575b505050506107ed82916116b3565b906106fd565b9061080a6107ed94976004889795940154906116a6565b9660ff19161790559185806107df565b50600681015462ed4e00810180911161052d574210156107da565b610702565b346101645760203660031901126101645760043560005260046020526020604060002054604051908152f35b34610164576020366003190112610164576004356000526003602052604060002060405190610894826116c2565b805482526001810154602083015260028101546001600160a01b039081166040840152600382015416606083015260048101546080830152600581015460a08301906108e39060ff1682611717565b600682015460c084015260078201549260e08101938452610120600960ff600886015416946101008401951515865201549101525191600583101561048157600160209314918261094d575b5081610941575b506040519015158152f35b90505142101582610936565b511591508361092f565b346101645760203660031901126101645760043561097361177e565b61097b61175d565b600081815260036020526040902060028101546001600160a01b03163303610a4b5760ff600582015416906005821015610481576109bd6001600893146117a1565b01805460ff8116610a065760019060ff1916179055604051904282527fe0e58e9cc5ed7ef092d3e14cff6136d23ebf75a16cf3c8257ef8804811d8b0f360203393a36001600055005b60405162461bcd60e51b815260206004820152601860248201527f5061796d656e7420616c726561647920646973707574656400000000000000006044820152606490fd5b60405162461bcd60e51b815260206004820152601d60248201527f4f6e6c792062757965722063616e207265717565737420726566756e640000006044820152606490fd5b34610164576000366003190112610164576001546040516001600160a01b039091168152602090f35b3461016457604036600319011261016457610ad2611636565b6001600160a01b031660009081526005602052604090208054602435919082101561016457602091610b039161164c565b90546040519160031b1c8152f35b34610164576000366003190112610164576020600654604051908152f35b3461016457602036600319011261016457600435610b4b61177e565b610b5361175d565b8060005260036020526040600020600481015460098201549060018060a01b038060038501541692600585019182549560ff87166005811015610481576001610b9c91146117a1565b60ff600882015416610c5d57600282910154163314908115610c4f575b5015610c0a5782604094610bf79360027f3c70b1e8034b5738ec77fbfdaa4d28906a0b3160018d67a2dc7b534e53e33fe09860ff1916179055611a40565b8151908152426020820152a26001600055005b60405162461bcd60e51b815260206004820152601f60248201527f4f6e6c79206275796572206f72206f776e65722063616e2072656c65617365006044820152606490fd5b905060015416331487610bb9565b60405162461bcd60e51b815260206004820152601360248201527214185e5b595b9d081a5cc8191a5cdc1d5d1959606a1b6044820152606490fd5b3461016457602036600319011261016457610cb1611636565b610cb961167a565b6001600160a01b03908116908115610d0857600754826001600160601b0360a01b821617600755167ff84f6b525c89a18c80bbbc0c62a7eb5390956d6b8432ab067b49963a98f8c38f600080a3005b60405162461bcd60e51b815260206004820152600f60248201526e496e76616c6964206164647265737360881b6044820152606490fd5b34610164576020366003190112610164576004356000526003602052610140604060002080549060018101549060018060a01b038060028301541690600383015416610dd0600484015460ff60058601541690600686015493600787015495600960ff60088a015416980154986040519a8b5260208b015260408a01526060890152608088015260a08701906115ab565b60c085015260e08401521515610100830152610120820152f35b3461016457600036600319011261016457610e0361167a565b610e0b61175d565b6001805460ff60a01b1916600160a01b1790556040513381527f62e78cea01bee320cd4e420270b5ea74000d11b0c9f74754ebdbfc544b05a25890602090a1005b34610164576020806003193601126101645760043590610e6a61177e565b610e7261175d565b6000828152600382526040902060028101546001600160a01b031690338203610fbc5760058101805460ff81166005811015610481576001610eb491146117a1565b6006830154610e10810180911161052d574211610f805760ff600884015416610f3b57600080808060047f0d873fe5f6868437feb15563953001c95c36d7fe14c7c6c13392c0143dc4ad739997604099976003610f279860ff191617905501958654905af1610f216117e6565b50611826565b549082519182524290820152a26001600055005b60405162461bcd60e51b815260048101869052601e60248201527f43616e6e6f742063616e63656c206469737075746564207061796d656e7400006044820152606490fd5b60405162461bcd60e51b815260048101869052601460248201527311dc9858d9481c195c9a5bd908195e1c1a5c995960621b6044820152606490fd5b60405162461bcd60e51b815260048101849052601560248201527413db9b1e48189d5e595c8818d85b8818d85b98d95b605a1b6044820152606490fd5b34610164576020366003190112610164576001600160a01b0361101a611636565b1660005260056020526020604060002054604051908152f35b346101645760003660031901126101645761104c61167a565b600180546001600160a01b031981169091556000906001600160a01b03167f8be0079c531659141344cd1fd0a4f28419497f9722a3daafe3b4186f6b6457e08280a3005b34610164576000366003190112610164576020600254604051908152f35b34610164576000366003190112610164576020604051600a8152f35b3461016457600036600319011261016457602060ff60015460a01c166040519015158152f35b346101645760003660031901126101645761110961167a565b611111611a1e565b60ff60a01b19600154166001557f5db9ee0a495bf2e6ff9c91a7834c1ba4fdd244a5e8aa4e537bd38aeae4b073aa6020604051338152a1005b346101645760403660031901126101645760043560243580151581036101645761117261167a565b61117a61177e565b816000526003602052604060002090600482015460018060a01b0392836002820154169360038201541693600982015490600883019260ff845416156112da5760050180549660ff8816936005851015610481577fdf0baf5489595ea17a097d16827d60793e2f57f3b85a982e5d7e02838b841ee6986112839861120160018d98146117a1565b1561128d575050507f0d873fe5f6868437feb15563953001c95c36d7fe14c7c6c13392c0143dc4ad7391604091600360ff1982541617905561124d60008080808a865af1610f216117e6565b948151908152426020820152a25b805460ff19169055604080516001600160a01b03909216825242602083015290918291820190565b0390a26001600055005b60ff19166002179092557f3c70b1e8034b5738ec77fbfdaa4d28906a0b3160018d67a2dc7b534e53e33fe092506040916112c8908783611a40565b948151908152426020820152a261125b565b60405162461bcd60e51b81526020600482015260156024820152744e6f206469737075746520746f207265736f6c766560581b6044820152606490fd5b3461016457602036600319011261016457611330611862565b5060043560005260036020526113d86040600020600960405191611353836116c2565b805483526001810154602084015260028101546001600160a01b03908116604085015260038201541660608401526004810154608084015260058101546113a09060ff1660a08501611717565b600681015460c0840152600781015460e084015260ff60088201541615156101008401520154610120820152604051918291826115b8565b0390f35b34610164576060366003190112610164576114056113f8611636565b60443590602435906118e7565b604051906040820190604083528351809252606083019160208095019060005b8181106114385750505082938301520390f35b825185529386019391860191600101611425565b346101645760203660031901126101645760043561146861167a565b600a81116114dd5760407fd347e206f25a89b917fc9482f1a2d294d749baa4dc9bde7fb495ee11fe4916439160065490806006557fc29e461cbcd11d56fbf05398c3b327595274271ffd9314146df65e55c43a124b606084518481528360208201524286820152a182519182526020820152a1005b60405162461bcd60e51b815260206004820152601960248201527f4665652063616e6e6f7420657863656564206d6178696d756d000000000000006044820152606490fd5b346101645760203660031901126101645761153b611862565b50600435600052600460205260406000205480156115725760005260036020526113d86040600020600960405191611353836116c2565b60405162461bcd60e51b815260206004820152601160248201527014185e5b595b9d081b9bdd08199bdd5b99607a1b6044820152606490fd5b9060058210156104815752565b919091610140810192805182526020810151602083015260018060a01b0380604083015116604084015260608201511660608301526080810151608083015261160960a082015160a08401906115ab565b60c081015160c083015260e081015160e08301526101008082015115159083015261012080910151910152565b600435906001600160a01b038216820361016457565b80548210156116645760005260206000200190600090565b634e487b7160e01b600052603260045260246000fd5b6001546001600160a01b0316330361168e57565b60405163118cdaa760e01b8152336004820152602490fd5b9190820180921161052d57565b600019811461052d5760010190565b610140810190811067ffffffffffffffff8211176116df57604052565b634e487b7160e01b600052604160045260246000fd5b90601f8019910116810190811067ffffffffffffffff8211176116df57604052565b60058210156104815752565b8054680100000000000000008110156116df576117459160018201815561164c565b819291549060031b91821b91600019901b1916179055565b60ff60015460a01c1661176c57565b60405163d93c066560e01b8152600490fd5b60026000541461178f576002600055565b604051633ee5aeb560e01b8152600490fd5b156117a857565b60405162461bcd60e51b8152602060048201526016602482015275496e76616c6964207061796d656e742073746174757360501b6044820152606490fd5b3d15611821573d9067ffffffffffffffff82116116df5760405191611815601f8201601f1916602001846116f5565b82523d6000602084013e565b606090565b1561182d57565b60405162461bcd60e51b815260206004820152600d60248201526c1499599d5b990819985a5b1959609a1b6044820152606490fd5b6040519061186f826116c2565b816101206000918281528260208201528260408201528260608201528260808201528260a08201528260c08201528260e0820152826101008201520152565b67ffffffffffffffff81116116df5760051b60200190565b9190820391821161052d57565b80518210156116645760209160051b010190565b92919260009060018060a01b03168152602091600583526040822090604051808386829554938481520190865286862092865b88828210611a0857505050611931925003836116f5565b815195868210156119cb5761194690826116a6565b818782116119c3575b611958916118c6565b92611962846118ae565b9461197060405196876116f5565b848652601f1961197f866118ae565b019036908701375b83811061199657505050509190565b806119ad6119a76119be93856116a6565b856118d3565b516119b882886118d3565b526116b3565b611987565b87915061194f565b50505060405191820182811067ffffffffffffffff8211176119f4576040528082523681379190565b634e487b7160e01b82526041600452602482fd5b855484526001958601958895509301920161191a565b60ff60015460a01c1615611a2e57565b604051638dfc202b60e01b8152600490fd5b9180820290828204148215171561052d576064611a6991048092600080958194829483946118c6565b905af1611a746117e6565b5015611ae457600754829182918291906001600160a01b03165af1611a976117e6565b5015611a9f57565b60405162461bcd60e51b815260206004820152601c60248201527f506c6174666f726d20666565207472616e73666572206661696c6564000000006044820152606490fd5b60405162461bcd60e51b815260206004820152601960248201527f5472616e7366657220746f2073656c6c6572206661696c6564000000000000006044820152606490fd5b60405162461bcd60e51b815260206004820152601c60248201527f446972656374207061796d656e7473206e6f74206163636570746564000000006044820152606490fdfea2646970667358221220dac489eec17b7757e90a662c4d40fd34b3e12fe74ebc987d463242739828888364736f6c63430008140033",
  "linkReferences": {},
  "deployedLinkReferences": {}
}