{
  "_format": "hh-sol-artifact-1",
  "contractName": "SupplyChainRegistryV2",
  "sourceName": "contracts/SupplyChainRegistryV2.sol",
  "abi": [
    {
      "inputs": [
        {
          "internalType": "address",
          "name": "_accessControl",
          "type": "address"
        }
      ],
      "stateMutability": "nonpayable",
      "type": "constructor"
    },
    {
      "inputs": [],
      "name": "ReentrancyGuardReentrantCall",
      "type": "error"
    },
    {
      "anonymous": false,
      "inputs": [
        {
          "indexed": true,
          "internalType": "uint256",
          "name": "batchId",
          "type": "uint256"
        },
        {
          "indexed": true,
          "internalType": "address",
          "name": "creator",
          "type": "address"
        },
        {
          "indexed": false,
          "internalType": "uint256",
          "name": "productCount",
          "type": "uint256"
        },
        {
          "indexed": false,
          "internalType": "uint256",
          "name": "timestamp",
          "type": "uint256"
        }
      ],
      "name": "BatchCreated",
      "type": "event"
    },
    {
      "anonymous": false,
      "inputs": [
        {
          "indexed": true,
          "internalType": "uint256",
          "name": "productId",
          "type": "uint256"
        },
        {
          "indexed": true,
          "internalType": "address",
          "name": "from",
          "type": "address"
        },
        {
          "indexed": true,
          "internalType": "address",
          "name": "to",
          "type": "address"
        },
        {
          "indexed": false,
          "internalType": "uint256",
          "name": "timestamp",
          "type": "uint256"
        },
        {
          "indexed": false,
          "internalType": "string",
          "name": "location",
          "type": "string"
        }
      ],
      "name": "OwnershipTransferred",
      "type": "event"
    },
    {
      "anonymous": false,
      "inputs": [
        {
          "indexed": true,
          "internalType": "uint256",
          "name": "productId",
          "type": "uint256"
        },
        {
          "indexed": true,
          "internalType": "address",
          "name": "approver",
          "type": "address"
        },
        {
          "indexed": false,
          "internalType": "uint256",
          "name": "timestamp",
          "type": "uint256"
        }
      ],
      "name": "ProductApproved",
      "type": "event"
    },
    {
      "anonymous": false,
      "inputs": [
        {
          "indexed": true,
          "internalType": "uint256",
          "name": "productId",
          "type": "uint256"
        },
        {
          "indexed": true,
          "internalType": "address",
          "name": "deactivatedBy",
          "type": "address"
        },
        {
          "indexed": false,
          "internalType": "string",
          "name": "reason",
          "type": "string"
        },
        {
          "indexed": false,
          "internalType": "uint256",
          "name": "timestamp",
          "type": "uint256"
        }
      ],
      "name": "ProductDeactivated",
      "type": "event"
    },
    {
      "anonymous": false,
      "inputs": [
        {
          "indexed": true,
          "internalType": "uint256",
          "name": "productId",
          "type": "uint256"
        },
        {
          "indexed": true,
          "internalType": "address",
          "name": "farmer",
          "type": "address"
        },
        {
          "indexed": false,
          "internalType": "string",
          "name": "name",
          "type": "string"
        },
        {
          "indexed": false,
          "internalType": "uint256",
          "name": "quantity",
          "type": "uint256"
        },
        {
          "indexed": false,
          "internalType": "uint256",
          "name": "timestamp",
          "type": "uint256"
        }
      ],
      "name": "ProductRegistered",
      "type": "event"
    },
    {
      "anonymous": false,
      "inputs": [
        {
          "indexed": true,
          "internalType": "uint256",
          "name": "productId",
          "type": "uint256"
        },
        {
          "indexed": true,
          "internalType": "address",
          "name": "rejector",
          "type": "address"
        },
        {
          "indexed": false,
          "internalType": "string",
          "name": "reason",
          "type": "string"
        },
        {
          "indexed": false,
          "internalType": "uint256",
          "name": "timestamp",
          "type": "uint256"
        }
      ],
      "name": "ProductRejected",
      "type": "event"
    },
    {
      "anonymous": false,
      "inputs": [
        {
          "indexed": true,
          "internalType": "uint256",
          "name": "productId",
          "type": "uint256"
        },
        {
          "indexed": true,
          "internalType": "address",
          "name": "inspector",
          "type": "address"
        },
        {
          "indexed": false,
          "internalType": "enum SupplyChainRegistryV2.QualityGrade",
          "name": "grade",
          "type": "uint8"
        },
        {
          "indexed": false,
          "internalType": "bool",
          "name": "passed",
          "type": "bool"
        },
        {
          "indexed": false,
          "internalType": "uint256",
          "name": "timestamp",
          "type": "uint256"
        }
      ],
      "name": "QualityCheckAdded",
      "type": "event"
    },
    {
      "anonymous": false,
      "inputs": [
        {
          "indexed": true,
          "internalType": "uint256",
          "name": "productId",
          "type": "uint256"
        },
        {
          "indexed": false,
          "internalType": "enum SupplyChainRegistryV2.ProductStatus",
          "name": "oldStatus",
          "type": "uint8"
        },
        {
          "indexed": false,
          "internalType": "enum SupplyChainRegistryV2.ProductStatus",
          "name": "newStatus",
          "type": "uint8"
        },
        {
          "indexed": true,
          "internalType": "address",
          "name": "updatedBy",
          "type": "address"
        },
        {
          "indexed": false,
          "internalType": "uint256",
          "name": "timestamp",
          "type": "uint256"
        }
      ],
      "name": "StatusUpdated",
      "type": "event"
    },
    {
      "inputs": [],
      "name": "MAX_BATCH_SIZE",
      "outputs": [
        {
          "internalType": "uint256",
          "name": "",
          "type": "uint256"
        }
      ],
      "stateMutability": "view",
      "type": "function"
    },
    {
      "inputs": [],
      "name": "accessControl",
      "outputs": [
        {
          "internalType": "contract AgriChainAccessControl",
          "name": "",
          "type": "address"
        }
      ],
      "stateMutability": "view",
      "type": "function"
    },
    {
      "inputs": [
        {
          "internalType": "uint256",
          "name": "_productId",
          "type": "uint256"
        },
        {
          "internalType": "enum SupplyChainRegistryV2.QualityGrade",
          "name": "_grade",
          "type": "uint8"
        },
        {
          "internalType": "string",
          "name": "_comments",
          "type": "string"
        },
        {
          "internalType": "bool",
          "name": "_passed",
          "type": "bool"
        }
      ],
      "name": "addQualityCheck",
      "outputs": [],
      "stateMutability": "nonpayable",
      "type": "function"
    },
    {
      "inputs": [
        {
          "internalType": "uint256",
          "name": "_productId",
          "type": "uint256"
        }
      ],
      "name": "approveProduct",
      "outputs": [],
      "stateMutability": "nonpayable",
      "type": "function"
    },
    {
      "inputs": [],
      "name": "batchCount",
      "outputs": [
        {
          "internalType": "uint256",
          "name": "",
          "type": "uint256"
        }
      ],
      "stateMutability": "view",
      "type": "function"
    },
    {
      "inputs": [
        {
          "internalType": "uint256",
          "name": "",
          "type": "uint256"
        }
      ],
      "name": "batches",
      "outputs": [
        {
          "internalType": "uint256",
          "name": "batchId",
          "type": "uint256"
        },
        {
          "internalType": "address",
          "name": "creator",
          "type": "address"
        },
        {
          "internalType": "uint256",
          "name": "createdAt",
          "type": "uint256"
        },
        {
          "internalType": "string",
          "name": "batchMetadata",
          "type": "string"
        }
      ],
      "stateMutability": "view",
      "type": "function"
    },
    {
      "inputs": [
        {
          "internalType": "uint256[]",
          "name": "_productIds",
          "type": "uint256[]"
        },
        {
          "internalType": "string",
          "name": "_batchMetadata",
          "type": "string"
        }
      ],
      "name": "createBatch",
      "outputs": [
        {
          "internalType": "uint256",
          "name": "",
          "type": "uint256"
        }
      ],
      "stateMutability": "nonpayable",
      "type": "function"
    },
    {
      "inputs": [
        {
          "internalType": "uint256",
          "name": "",
          "type": "uint256"
        }
      ],
      "name": "currentOwner",
      "outputs": [
        {
          "internalType": "address",
          "name": "",
          "type": "address"
        }
      ],
      "stateMutability": "view",
      "type": "function"
    },
    {
      "inputs": [
        {
          "internalType": "uint256",
          "name": "_productId",
          "type": "uint256"
        },
        {
          "internalType": "string",
          "name": "_reason",
          "type": "string"
        }
      ],
      "name": "deactivateProduct",
      "outputs": [],
      "stateMutability": "nonpayable",
      "type": "function"
    },
    {
      "inputs": [
        {
          "internalType": "uint256",
          "name": "_batchId",
          "type": "uint256"
        }
      ],
      "name": "getBatch",
      "outputs": [
        {
          "components": [
            {
              "internalType": "uint256",
              "name": "batchId",
              "type": "uint256"
            },
            {
              "internalType": "uint256[]",
              "name": "productIds",
              "type": "uint256[]"
            },
            {
              "internalType": "address",
              "name": "creator",
              "type": "address"
            },
            {
              "internalType": "uint256",
              "name": "createdAt",
              "type": "uint256"
            },
            {
              "internalType": "string",
              "name": "batchMetadata",
              "type": "string"
            }
          ],
          "internalType": "struct SupplyChainRegistryV2.ProductBatch",
          "name": "",
          "type": "tuple"
        }
      ],
      "stateMutability": "view",
      "type": "function"
    },
    {
      "inputs": [
        {
          "internalType": "uint256",
          "name": "_productId",
          "type": "uint256"
        }
      ],
      "name": "getCurrentOwner",
      "outputs": [
        {
          "internalType": "address",
          "name": "",
          "type": "address"
        }
      ],
      "stateMutability": "view",
      "type": "function"
    },
    {
      "inputs": [
        {
          "internalType": "uint256",
          "name": "_productId",
          "type": "uint256"
        }
      ],
      "name": "getOwnershipHistory",
      "outputs": [
        {
          "components": [
            {
              "internalType": "address",
              "name": "from",
              "type": "address"
            },
            {
              "internalType": "address",
              "name": "to",
              "type": "address"
            },
            {
              "internalType": "uint256",
              "name": "timestamp",
              "type": "uint256"
            },
            {
              "internalType": "string",
              "name": "location",
              "type": "string"
            },
            {
              "internalType": "uint256",
              "name": "blockNumber",
              "type": "uint256"
            },
            {
              "internalType": "uint256",
              "name": "transferPrice",
              "type": "uint256"
            }
          ],
          "internalType": "struct SupplyChainRegistryV2.OwnershipTransfer[]",
          "name": "",
          "type": "tuple[]"
        }
      ],
      "stateMutability": "view",
      "type": "function"
    },
    {
      "inputs": [
        {
          "internalType": "uint256",
          "name": "_productId",
          "type": "uint256"
        }
      ],
      "name": "getProduct",
      "outputs": [
        {
          "components": [
            {
              "internalType": "uint256",
              "name": "productId",
              "type": "uint256"
            },
            {
              "internalType": "string",
              "name": "name",
              "type": "string"
            },
            {
              "internalType": "string",
              "name": "category",
              "type": "string"
            },
            {
              "internalType": "address",
              "name": "farmer",
              "type": "address"
            },
            {
              "internalType": "uint256",
              "name": "harvestDate",
              "type": "uint256"
            },
            {
              "internalType": "uint256",
              "name": "quantity",
              "type": "uint256"
            },
            {
              "internalType": "string",
              "name": "unit",
              "type": "string"
            },
            {
              "internalType": "uint256",
              "name": "pricePerUnit",
              "type": "uint256"
            },
            {
              "internalType": "uint256",
              "name": "wholesalePrice",
              "type": "uint256"
            },
            {
              "internalType": "enum SupplyChainRegistryV2.QualityGrade",
              "name": "grade",
              "type": "uint8"
            },
            {
              "internalType": "enum SupplyChainRegistryV2.ProductStatus",
              "name": "status",
              "type": "uint8"
            },
            {
              "internalType": "string",
              "name": "ipfsHash",
              "type": "string"
            },
            {
              "internalType": "bool",
              "name": "isActive",
              "type": "bool"
            },
            {
              "internalType": "bool",
              "name": "isApproved",
              "type": "bool"
            },
            {
              "internalType": "address",
              "name": "approvedBy",
              "type": "address"
            },
            {
              "internalType": "uint256",
              "name": "createdAt",
              "type": "uint256"
            },
            {
              "internalType": "uint256",
              "name": "updatedAt",
              "type": "uint256"
            }
          ],
          "internalType": "struct SupplyChainRegistryV2.Product",
          "name": "",
          "type": "tuple"
        }
      ],
      "stateMutability": "view",
      "type": "function"
    },
    {
      "inputs": [
        {
          "internalType": "uint256",
          "name": "_productId",
          "type": "uint256"
        }
      ],
      "name": "getQualityHistory",
      "outputs": [
        {
          "components": [
            {
              "internalType": "address",
              "name": "inspector",
              "type": "address"
            },
            {
              "internalType": "enum SupplyChainRegistryV2.QualityGrade",
              "name": "grade",
              "type": "uint8"
            },
            {
              "internalType": "uint256",
              "name": "timestamp",
              "type": "uint256"
            },
            {
              "internalType": "string",
              "name": "comments",
              "type": "string"
            },
            {
              "internalType": "bool",
              "name": "passed",
              "type": "bool"
            }
          ],
          "internalType": "struct SupplyChainRegistryV2.QualityCheck[]",
          "name": "",
          "type": "tuple[]"
        }
      ],
      "stateMutability": "view",
      "type": "function"
    },
    {
      "inputs": [
        {
          "internalType": "address",
          "name": "_user",
          "type": "address"
        }
      ],
      "name": "getUserProductCount",
      "outputs": [
        {
          "internalType": "uint256",
          "name": "",
          "type": "uint256"
        }
      ],
      "stateMutability": "view",
      "type": "function"
    },
    {
      "inputs": [
        {
          "internalType": "address",
          "name": "_user",
          "type": "address"
        },
        {
          "internalType": "uint256",
          "name": "_offset",
          "type": "uint256"
        },
        {
          "internalType": "uint256",
          "name": "_limit",
          "type": "uint256"
        }
      ],
      "name": "getUserProducts",
      "outputs": [
        {
          "internalType": "uint256[]",
          "name": "",
          "type": "uint256[]"
        },
        {
          "internalType": "uint256",
          "name": "",
          "type": "uint256"
        }
      ],
      "stateMutability": "view",
      "type": "function"
    },
    {
      "inputs": [
        {
          "internalType": "uint256",
          "name": "_productId",
          "type": "uint256"
        },
        {
          "internalType": "address",
          "name": "_user",
          "type": "address"
        }
      ],
      "name": "isProductOwner",
      "outputs": [
        {
          "internalType": "bool",
          "name": "",
          "type": "bool"
        }
      ],
      "stateMutability": "view",
      "type": "function"
    },
    {
      "inputs": [
        {
          "internalType": "address",
          "name": "",
          "type": "address"
        }
      ],
      "name": "lastProductCreationReset",
      "outputs": [
        {
          "internalType": "uint256",
          "name": "",
          "type": "uint256"
        }
      ],
      "stateMutability": "view",
      "type": "function"
    },
    {
      "inputs": [
        {
          "internalType": "uint256",
          "name": "",
          "type": "uint256"
        },
        {
          "internalType": "uint256",
          "name": "",
          "type": "uint256"
        }
      ],
      "name": "ownershipHistory",
      "outputs": [
        {
          "internalType": "address",
          "name": "from",
          "type": "address"
        },
        {
          "internalType": "address",
          "name": "to",
          "type": "address"
        },
        {
          "internalType": "uint256",
          "name": "timestamp",
          "type": "uint256"
        },
        {
          "internalType": "string",
          "name": "location",
          "type": "string"
        },
        {
          "internalType": "uint256",
          "name": "blockNumber",
          "type": "uint256"
        },
        {
          "internalType": "uint256",
          "name": "transferPrice",
          "type": "uint256"
        }
      ],
      "stateMutability": "view",
      "type": "function"
    },
    {
      "inputs": [],
      "name": "productCount",
      "outputs": [
        {
          "internalType": "uint256",
          "name": "",
          "type": "uint256"
        }
      ],
      "stateMutability": "view",
      "type": "function"
    },
    {
      "inputs": [
        {
          "internalType": "uint256",
          "name": "",
          "type": "uint256"
        }
      ],
      "name": "products",
      "outputs": [
        {
          "internalType": "uint256",
          "name": "productId",
          "type": "uint256"
        },
        {
          "internalType": "string",
          "name": "name",
          "type": "string"
        },
        {
          "internalType": "string",
          "name": "category",
          "type": "string"
        },
        {
          "internalType": "address",
          "name": "farmer",
          "type": "address"
        },
        {
          "internalType": "uint256",
          "name": "harvestDate",
          "type": "uint256"
        },
        {
          "internalType": "uint256",
          "name": "quantity",
          "type": "uint256"
        },
        {
          "internalType": "string",
          "name": "unit",
          "type": "string"
        },
        {
          "internalType": "uint256",
          "name": "pricePerUnit",
          "type": "uint256"
        },
        {
          "internalType": "uint256",
          "name": "wholesalePrice",
          "type": "uint256"
        },
        {
          "internalType": "enum SupplyChainRegistryV2.QualityGrade",
          "name": "grade",
          "type": "uint8"
        },
        {
          "internalType": "enum SupplyChainRegistryV2.ProductStatus",
          "name": "status",
          "type": "uint8"
        },
        {
          "internalType": "string",
          "name": "ipfsHash",
          "type": "string"
        },
        {
          "internalType": "bool",
          "name": "isActive",
          "type": "bool"
        },
        {
          "internalType": "bool",
          "name": "isApproved",
          "type": "bool"
        },
        {
          "internalType": "address",
          "name": "approvedBy",
          "type": "address"
        },
        {
          "internalType": "uint256",
          "name": "createdAt",
          "type": "uint256"
        },
        {
          "internalType": "uint256",
          "name": "updatedAt",
          "type": "uint256"
        }
      ],
      "stateMutability": "view",
      "type": "function"
    },
    {
      "inputs": [
        {
          "internalType": "address",
          "name": "",
          "type": "address"
        }
      ],
      "name": "productsCreatedToday",
      "outputs": [
        {
          "internalType": "uint256",
          "name": "",
          "type": "uint256"
        }
      ],
      "stateMutability": "view",
      "type": "function"
    },
    {
      "inputs": [
        {
          "internalType": "uint256",
          "name": "",
          "type": "uint256"
        },
        {
          "internalType": "uint256",
          "name": "",
          "type": "uint256"
        }
      ],
      "name": "qualityHistory",
      "outputs": [
        {
          "internalType": "address",
          "name": "inspector",
          "type": "address"
        },
        {
          "internalType": "enum SupplyChainRegistryV2.QualityGrade",
          "name": "grade",
          "type": "uint8"
        },
        {
          "internalType": "uint256",
          "name": "timestamp",
          "type": "uint256"
        },
        {
          "internalType": "string",
          "name": "comments",
          "type": "string"
        },
        {
          "internalType": "bool",
          "name": "passed",
          "type": "bool"
        }
      ],
      "stateMutability": "view",
      "type": "function"
    },
    {
      "inputs": [
        {
          "internalType": "string",
          "name": "_name",
          "type": "string"
        },
        {
          "internalType": "string",
          "name": "_category",
          "type": "string"
        },
        {
          "internalType": "uint256",
          "name": "_quantity",
          "type": "uint256"
        },
        {
          "internalType": "string",
          "name": "_unit",
          "type": "string"
        },
        {
          "internalType": "uint256",
          "name": "_pricePerUnit",
          "type": "uint256"
        },
        {
          "internalType": "uint256",
          "name": "_wholesalePrice",
          "type": "uint256"
        },
        {
          "internalType": "string",
          "name": "_ipfsHash",
          "type": "string"
        }
      ],
      "name": "registerProduct",
      "outputs": [
        {
          "internalType": "uint256",
          "name": "",
          "type": "uint256"
        }
      ],
      "stateMutability": "nonpayable",
      "type": "function"
    },
    {
      "inputs": [
        {
          "internalType": "uint256",
          "name": "_productId",
          "type": "uint256"
        },
        {
          "internalType": "string",
          "name": "_reason",
          "type": "string"
        }
      ],
      "name": "rejectProduct",
      "outputs": [],
      "stateMutability": "nonpayable",
      "type": "function"
    },
    {
      "inputs": [
        {
          "internalType": "uint256",
          "name": "_productId",
          "type": "uint256"
        },
        {
          "internalType": "address",
          "name": "_to",
          "type": "address"
        },
        {
          "internalType": "string",
          "name": "_location",
          "type": "string"
        },
        {
          "internalType": "uint256",
          "name": "_transferPrice",
          "type": "uint256"
        }
      ],
      "name": "transferOwnership",
      "outputs": [],
      "stateMutability": "payable",
      "type": "function"
    },
    {
      "inputs": [
        {
          "internalType": "uint256",
          "name": "_productId",
          "type": "uint256"
        },
        {
          "internalType": "enum SupplyChainRegistryV2.ProductStatus",
          "name": "_newStatus",
          "type": "uint8"
        }
      ],
      "name": "updateStatus",
      "outputs": [],
      "stateMutability": "nonpayable",
      "type": "function"
    },
    {
      "inputs": [
        {
          "internalType": "address",
          "name": "",
          "type": "address"
        },
        {
          "internalType": "uint256",
          "name": "",
          "type": "uint256"
        }
      ],
      "name": "userProducts",
      "outputs": [
        {
          "internalType": "uint256",
          "name": "",
          "type": "uint256"
        }
      ],
      "stateMutability": "view",
      "type": "function"
    }
  ],
  "bytecode": "0x608034620000cb57601f62003e8f38819003918201601f19168301916001600160401b03831184841017620000d057808492602094604052833981010312620000cb57516001600160a01b03811690819003620000cb57600160005580156200008657600180546001600160a01b031916919091179055604051613da89081620000e78239f35b60405162461bcd60e51b815260206004820152601d60248201527f496e76616c696420416363657373436f6e74726f6c20616464726573730000006044820152606490fd5b600080fd5b634e487b7160e01b600052604160045260246000fdfe608080604052600436101561001357600080fd5b60003560e01c90816306f130561461348b5750806313007d551461346257806327d5549514613298578063289928ed146132685780633a1b3d3114612f995780633d52788314612f4157806347c7fc5d1461291d5780635ac44282146127af5780636a704a5914611ff85780636babbf1614611f615780637acc0b2014611df55780637ace341b14611d865780638a1104cd146119fe578063a80f263a14610e06578063a930926214610d96578063b32c4d8d14610d29578063b9db15b414610a08578063c30b46d7146109ce578063c5026c361461089a578063c9cf2adc14610806578063cab0317d146107cc578063cfdbf254146107b0578063e0f6ef8714610792578063e54511031461075e578063e9f359f8146104c9578063f1dbaccb1461032d578063f7ba0af1146101925763f9b8cc1b1461015357600080fd5b3461018d57602036600319011261018d576001600160a01b036101746134bc565b1660005260086020526020604060002054604051908152f35b600080fd5b3461018d5760208060031936011261018d5760043580151580610321575b6101bc90929192613ac7565b816000526004815260ff916101da83600b6040600020015416613b0c565b60005260068152604060002080546101f181613573565b936101ff6040519586613552565b81855260009283528383208486019391845b8484106102b757604080518881528951818a01819052600092600582901b83018101918a918c9085015b8287106102485785850386f35b909192938280600192603f19898203018552875190848060a01b038251168152610278838301518483019061373e565b6040820151604082015261029b6060808401519060a080918501528301906135ec565b916080809101511515910152960192019601959291909261023b565b60048760019260409a999a516102cc81613500565b6102e8868854878060a01b038116845260a01c1684830161383f565b8487015460408201526102fd60028801613698565b60608201528560038801541615156080820152815201930193019291969596610211565b506002548111156101b0565b3461018d5760208060031936011261018d57600435801515806104bd575b61035490613ac7565b806000526004825261037060ff600b6040600020015416613b0c565b600052600590818152604060002080549161038a83613573565b926103986040519485613552565b8084528184018093600052826000206000915b8383106104545750505050604051928184019082855251809152604081818601961b85010192916000955b8287106103e35785850386f35b909192938280600192603f19898203018552875190848060a01b03808351168252838301511683820152604082015160408201526104306060808401519060c080918501528301906135ec565b916080808201519083015260a08091015191015296019201960195929190926103d6565b6006856001926040999799516104698161351b565b848060a01b038087541682528587015416838201526002860154604082015261049460038701613698565b6060820152600486015460808201528b86015460a08201528152019201920191909593956103ab565b5060025481111561034b565b3461018d576104d736613758565b9080151580610752575b6104ea90613ac7565b806000526020916004835261050960ff600b6040600020015416613b0c565b816000526004835260018060a01b039081600360406000200154163314916001541660405190631d6c8e3f60e21b82528582600481845afa9182156106c557600092610723575b50604051632474521560e21b8082526004820193909352336024820152918683604481855afa9283156106c557600093610704575b50821561060d575b5050826105c3917f465ae1d944e9a106e436f5c35e99e8a304ed4623848c8fd64af9aef3c1b46f41949115610605575b50613b50565b82600052600484526040600020600b810160ff198154169055600d429101556105f7604051916040835260408301906135ec565b9342908201528033940390a3005b9050866105bd565b6040516322305eeb60e11b81529192508682600481865afa9081156106c55787926000926106d1575b5060405190815260048101919091523360248201529182908180604481015b03915afa9283156106c5577f465ae1d944e9a106e436f5c35e99e8a304ed4623848c8fd64af9aef3c1b46f41936105c392600091610698575b509181945061058d565b6106b89150873d89116106be575b6106b08183613552565b8101906137a6565b8761068e565b503d6106a6565b6040513d6000823e3d90fd5b8381949293503d83116106fd575b6106e98183613552565b8101031261018d5790518691610655610636565b503d6106df565b61071c919350873d89116106be576106b08183613552565b9187610585565b9091508581813d831161074b575b61073b8183613552565b8101031261018d57519086610550565b503d610731565b506002548111156104e1565b3461018d57602036600319011261018d576004356000526007602052602060018060a01b0360406000205416604051908152f35b3461018d57600036600319011261018d576020600254604051908152f35b3461018d57600036600319011261018d57602060405160648152f35b3461018d57602036600319011261018d576001600160a01b036107ed6134bc565b16600052600b6020526020604060002054604051908152f35b3461018d576108143661362c565b906000526005602052604060002090815481101561018d576108359161378a565b5060018060a01b03808254169060018301541691600281015461088b61085d60038401613698565b600560048501549401549260405196879687526020870152604086015260c0606086015260c08501906135ec565b91608084015260a08301520390f35b3461018d576108a836613758565b600154604051631d6c8e3f60e21b8152602093926001600160a01b0390921691908481600481865afa80156106c557859160009161099d575b50604051632474521560e21b815260048101919091523360248201529283908180604481015b03915afa9182156106c5577f3a92a442cb64ff1d90e3b73bacc6a57c85e0b95aa6565ba83065598d048049a19261094691600091610980575b50613a61565b82151580610974575b61095890613ac7565b82600052600484526105c360ff600b6040600020015416613b0c565b5060025483111561094f565b6109979150863d88116106be576106b08183613552565b86610940565b82819392503d83116109c7575b6109b48183613552565b8101031261018d575184906109076108e1565b503d6109aa565b3461018d57602036600319011261018d576001600160a01b036109ef6134bc565b16600052600c6020526020604060002054604051908152f35b3461018d57602036600319011261018d576004356000610200604051610a2d81613536565b82815260606020820152606060408201528260608201528260808201528260a0820152606060c08201528260e0820152826101008201528261012082015282610140820152606061016082015282610180820152826101a0820152826101c0820152826101e0820152015280151580610d1d575b610aaa90613ac7565b806000526004602052610ac760ff600b6040600020015416613b0c565b6000526004602052604060002060405190610ae182613536565b80548252610af160018201613698565b6020830152610b0260028201613698565b604083015260038101546001600160a01b0316606083015260048101546080830152600581015460a0830152610b3a60068201613698565b60c0830152600781015460e08301526008810154610100830152600981015490610b6b60ff8316610120850161383f565b600660ff8360081c161015610d075760ff600d9260081c16610140840152610b95600a8201613698565b610160840152600b81015460ff8116151561018085015260ff8160081c1615156101a085015260018060a01b039060101c166101c0840152600c8101546101e0840152015461020082015260405180916020825280516020830152610200610cc0610c69610c2d610c17602086015161022060408901526102408801906135ec565b6040860151878203601f190160608901526135ec565b60018060a01b036060860151166080870152608085015160a087015260a085015160c087015260c0850151601f198783030160e08801526135ec565b60e0840151610100860152610100840151610120860152610c9461012085015161014087019061373e565b610ca861014085015161016087019061374b565b610160840151858203601f19016101808701526135ec565b9161018081015115156101a08501526101a081015115156101c085015260018060a01b036101c0820151166101e08501526101e08101518285015201516102208301520390f35b634e487b7160e01b600052602160045260246000fd5b50600254811115610aa1565b3461018d57602036600319011261018d57600435600052600960205260406000208054610d9260018060a01b0360028401541692610d6e600460038301549201613698565b906040519485948552602085015260408401526080606084015260808301906135ec565b0390f35b3461018d57606036600319011261018d57610dbf610db26134bc565b6044359060243590613c21565b604051906040820190604083528351809252606083019160208095019060005b818110610df25750505082938301520390f35b825185529386019391860191600101610ddf565b3461018d5760e036600319011261018d576004356001600160401b03811161018d57610e369036906004016135a5565b6024356001600160401b03811161018d57610e559036906004016135a5565b6064356001600160401b03811161018d57610e749036906004016135a5565b9060c4356001600160401b03811161018d57610e949036906004016135a5565b600154604051630f39439760e41b81526001600160a01b0390911690602081600481855afa9081156106c5576000916119ca575b5060405163c9e18ba960e01b815233600482015260248101919091529060209082908180604481015b03915afa80156106c557610f0d916000916119ab575b506137be565b610f15613a3e565b8351801515908161199f575b501561195a578151801515908161194e575b5015611909576044351515806118fa575b156118c257825180151590816118b6575b501561187b57608435151580611865575b1561182a5760a43515158061181c575b156117c757805180151590816117bb575b50156117825733600052600c602052604060002054620151808101811161176c57620151800142101561174b575b33600052600b602052603260406000205410156116fa5733600052600b6020526040600020610fe48154613830565b9055610ff1600254613830565b92836002556040519261100384613536565b848452856020850152604084015233606084015242608084015260443560a084015260c083015260843560e083015260a43561010083015260036101208301526000610140830152610160820152600161018082015260006101a082015260006101c0820152426101e0820152426102008201528160005260046020526040600020908051825560208101518051906001600160401b03821161140d5781906110af600186015461365e565b601f81116116c5575b50602090601f831160011461165357600092611648575b50508160011b916000199060031b1c19161760018301555b60408101518051906001600160401b03821161140d57819061110c600286015461365e565b601f8111611613575b50602090601f83116001146115a157600092611596575b50508160011b916000199060031b1c19161760028301555b60608101516003830180546001600160a01b0319166001600160a01b03929092169190911790556080810151600483015560a0810151600583015560c08101518051906001600160401b03821161140d5781906111a4600686015461365e565b601f8111611561575b50602090601f83116001146114ef576000926114e4575b50508160011b916000199060031b1c19161760068301555b60e081015160078301556101008101516008830155600982016101208201516004811015610d075761120e9082613862565b6101408201516006811015610d07576112269161387a565b6101608101518051906001600160401b03821161140d5761124a600a85015461365e565b601f81116114a4575b50602090601f831160011461142e579180600d949261020094600092611423575b50508160011b916000199060031b1c191617600a8501555b6112ef600b85016112b06101808401511515829060ff801983541691151516179055565b6101a083015181546101c0850151610100600160b01b031990911691151560081b61ff00169190911760109190911b62010000600160b01b0316179055565b6101e0810151600c85015501519101558060005260076020526040600020336001600160601b0360a01b825416179055336000526008602052611336816040600020613899565b806000526005602052604060002091604051926113528461351b565b600084523360208501524260408501526040519360408501918583106001600160401b0384111761140d576020956113b593604052600b81526a2330b93697a7b934b3b4b760a91b878201526060830152436080830152600060a08301526138bc565b817f2d7ccb0ae9615b2fa25ff53fd350ce1ec7c82daa84a5bf69a8ec48c93334087c6113ec604051936060855260608501906135ec565b92604435868201524260408201528033940390a36001600055604051908152f35b634e487b7160e01b600052604160045260246000fd5b015190508880611274565b90600a850160005260206000209160005b601f198516811061148c575092600d94926001926102009583601f19811610611473575b505050811b01600a85015561128c565b015160001960f88460031b161c19169055888080611463565b9192602060018192868501518155019401920161143f565b6114d490600a86016000526020600020601f850160051c810191602086106114da575b601f0160051c019061384b565b86611253565b90915081906114c7565b0151905086806111c4565b9250600685016000526020600020906000935b601f1984168510611546576001945083601f1981161061152d575b505050811b0160068301556111dc565b015160001960f88460031b161c1916905586808061151d565b81810151835560209485019460019093019290910190611502565b61159090600687016000526020600020601f850160051c810191602086106114da57601f0160051c019061384b565b876111ad565b01519050868061112c565b9250600285016000526020600020906000935b601f19841685106115f8576001945083601f198116106115df575b505050811b016002830155611144565b015160001960f88460031b161c191690558680806115cf565b818101518355602094850194600190930192909101906115b4565b61164290600287016000526020600020601f850160051c810191602086106114da57601f0160051c019061384b565b87611115565b0151905086806110cf565b9250600185016000526020600020906000935b601f19841685106116aa576001945083601f19811610611691575b505050811b0160018301556110e7565b015160001960f88460031b161c19169055868080611681565b81810151835560209485019460019093019290910190611666565b6116f490600187016000526020600020601f850160051c810191602086106114da57601f0160051c019061384b565b876110b8565b60405162461bcd60e51b8152602060048201526024808201527f4461696c792070726f64756374206372656174696f6e206c696d69742072656160448201526318da195960e21b6064820152608490fd5b33600052600b60205260006040812055600c60205242604060002055610fb5565b634e487b7160e01b600052601160045260246000fd5b60405162461bcd60e51b8152602060048201526011602482015270092dcecc2d8d2c84092a08ca640d0c2e6d607b1b6044820152606490fd5b60649150111585610f87565b60405162461bcd60e51b815260206004820152602760248201527f57686f6c6573616c65207072696365206d757374206265203c3d2072657461696044820152666c20707269636560c81b6064820152608490fd5b5060843560a4351115610f76565b60405162461bcd60e51b8152602060048201526013602482015272496e76616c69642070726963652072616e676560681b6044820152606490fd5b5069021e19e0c9bab24000006084351115610f66565b60405162461bcd60e51b8152602060048201526013602482015272092dcecc2d8d2c840eadcd2e840d8cadccee8d606b1b6044820152606490fd5b60149150111585610f55565b60405162461bcd60e51b815260206004820152601060248201526f496e76616c6964207175616e7469747960801b6044820152606490fd5b50620f42406044351115610f44565b60405162461bcd60e51b815260206004820152601760248201527f496e76616c69642063617465676f7279206c656e6774680000000000000000006044820152606490fd5b60329150111585610f33565b60405162461bcd60e51b815260206004820152601b60248201527f496e76616c69642070726f64756374206e616d65206c656e67746800000000006044820152606490fd5b60649150111585610f21565b6119c4915060203d6020116106be576106b08183613552565b86610f07565b90506020813d6020116119f6575b816119e560209383613552565b8101031261018d5751610ef1610ec8565b3d91506119d8565b3461018d57608036600319011261018d5760043560243590600482101561018d576001600160401b0360443581811161018d57611a3f9036906004016135a5565b906064359182151580930361018d5760018054604051631d6c8e3f60e21b81526020946001600160a01b0394929091908516908681600481855afa80156106c5578791600091611d55575b50604051632474521560e21b815260048101919091523360248201529182908180604481015b03915afa80156106c557611acb91600091611d385750613a61565b86151580611d2c575b611add90613ac7565b8660005260048552611af960ff600b6040600020015416613b0c565b866000526006855260406000209260405194611b1486613500565b338652868601611b248b8261383f565b60408701914283526060880195865260808801968a88528054600160401b81101561140d57611b57918682018155613642565b989098611d16575116875491816001600160601b0360a01b8416178955516004811015610d075760ff60a01b9060a01b16916affffffffffffffffffffff60a81b16171786555181860155600285019251805192831161140d57611bbb845461365e565b601f8111611ce6575b508690601f8411600114611c78579280600395938193611c0f999896600094611c6d575b50501b9160001990861b1c19161790555b51151591019060ff801983541691151516179055565b82600052600481526040600020611c298560098301613862565b600d42910155611c3c604051809561373e565b8301524260408301527f2872af69a18724cbb1f4fe6078b8edd0c97353bb2effec4883fb0c614957624560603393a3005b015192508d80611be8565b90601f9392931983169185600052886000209260005b8a828210611cd257505091611c0f989795939185600398969410611cba575b505050811b019055611bf9565b015160001983881b60f8161c191690558b8080611cad565b838501518655948701949384019301611c8e565b611d10908560005288600020601f860160051c8101918a87106114da57601f0160051c019061384b565b8a611bc4565b634e487b7160e01b600052600060045260246000fd5b50600254871115611ad4565b611d4f9150873d89116106be576106b08183613552565b8a610940565b82819392503d8311611d7f575b611d6c8183613552565b8101031261018d57518690611ab0611a8a565b503d611d62565b3461018d57602036600319011261018d5760043580151580611de9575b611dac90613ac7565b806000526004602052611dc960ff600b6040600020015416613b0c565b6000526007602052602060018060a01b0360406000205416604051908152f35b50600254811115611da3565b3461018d57602036600319011261018d5760043560005260046020526040600020805460018201611e2590613698565b91611e3260028201613698565b6003820154600483015460058401549093916001600160a01b0316611e5960068401613698565b90600784015491600885015490600986015492600a8701611e7990613698565b95600b88015499600c89015498600d0154996040519d8e9d8e528d6102209081602082015201611ea8916135ec565b8d810360408f0152611eb9916135ec565b9260608d015260808c015260a08b015289810360c08b0152611eda916135ec565b9260e0890152610100880152610120870160ff821690611ef99161373e565b61014087019060081c60ff1690611f0f9161374b565b858103610160870152611f21916135ec565b60ff8085161515610180870152600885901c1615156101a086015260109390931c6001600160a01b03166101c08501526101e08401526102008301520390f35b3461018d57611f6f3661362c565b9060005260066020526040600020805482101561018d57611fd691611f9391613642565b50805490611fec60018201549160ff6003611fb060028401613698565b920154169260405195869560018060a01b038116875260ff602088019160a01c1661373e565b604085015260a0606085015260a08401906135ec565b90151560808301520390f35b608036600319011261018d5761200c6134a6565b6044356001600160401b03811161018d5761202b9036906004016135a5565b6004351515806127a1575b61203f90613ac7565b600435600052600460205261205e60ff600b6040600020015416613b0c565b6004356000908152600760205260409020546001600160a01b039190821633036127495761208a613a3e565b818316156127045733828416146126bf57600435600052600460205260ff600b6040600020015460081c161561267a57606435340361262b57606435156125d857600154604051633c2f61f360e21b8152908316602082600481845afa80156106c557859260009161259f575b50604051632474521560e21b815260048101919091526001600160a01b03909216602483015260208280604481015b0381845afa9182156106c55760009261257e575b50604051632115e7bf60e01b8152602081600481855afa80156106c5578691600091612547575b50604051632474521560e21b815260048101919091526001600160a01b03909116602482015260208180604481015b0381855afa9081156106c557600091612528575b506040516325e016d360e11b815291602083600481845afa80156106c55787936000916124f0575b50604051632474521560e21b815260048101919091526001600160a01b03939093166024840152602090839060449082905afa9182156106c5576000926124cf575b5082156124c7575b5081156124bf575b501561247a57600435600052600760205281604060002054169081600052600860205260406000209260005b84548082101561246f5761225e82876134d2565b905460039291831b1c6004351461227f57505061227a90613830565b61224a565b600096929193949596199182820191821161176c576122b16122a46122ca93866134d2565b905490871b1c91856134d2565b90919082549060031b91821b91600019901b1916179055565b81548015612459578101926122df84846134d2565b81939154921b1b19169055555b600435600052600760205260406000208185166001600160601b0360a01b825416179055808416600052600860205261232b6004356040600020613899565b600435600052600560205261237560406000206040519061234b8261351b565b858252838716602083015242604083015284606083015243608083015260643560a08301526138bc565b600435600052600460205242600d60406000200155600080808034875af13d15612454573d6123a38161358a565b906123b16040519283613552565b8152600060203d92013e5b1561240f577ff4d95fc8796a54b02be0f62c2ba539fdb5bc830f9178ca1534e4d35af6e8d71e9060405194428652604060208701521693806124056004359460408301906135ec565b0390a46001600055005b60405162461bcd60e51b815260206004820152601760248201527f5061796d656e74207472616e73666572206661696c65640000000000000000006044820152606490fd5b6123bc565b634e487b7160e01b600052603160045260246000fd5b5050909192506122ec565b60405162461bcd60e51b815260206004820152601e60248201527f526563697069656e74206d757374206861766520627579657220726f6c6500006044820152606490fd5b90508461221e565b915085612216565b6124e991925060203d6020116106be576106b08183613552565b908661220e565b9350506020833d602011612520575b8161250c60209383613552565b8101031261018d57915186929060206121cc565b3d91506124ff565b612541915060203d6020116106be576106b08183613552565b866121a4565b9150506020813d602011612576575b8161256360209383613552565b8101031261018d57518590612190612161565b3d9150612556565b61259891925060203d6020116106be576106b08183613552565b908561213a565b9250506020823d6020116125d0575b816125bb60209383613552565b8101031261018d5790518491906121266120f7565b3d91506125ae565b60405162461bcd60e51b815260206004820152602560248201527f5472616e73666572207072696365206d75737420626520677265617465722074604482015264068616e20360dc1b6064820152608490fd5b60405162461bcd60e51b815260206004820152602160248201527f5061796d656e74206d757374206d61746368207472616e7366657220707269636044820152606560f81b6064820152608490fd5b60405162461bcd60e51b815260206004820152601e60248201527f50726f64756374206d75737420626520617070726f76656420666972737400006044820152606490fd5b60405162461bcd60e51b815260206004820152601760248201527f43616e6e6f74207472616e7366657220746f2073656c660000000000000000006044820152606490fd5b60405162461bcd60e51b815260206004820152601960248201527f496e76616c696420726563697069656e742061646472657373000000000000006044820152606490fd5b60405162461bcd60e51b815260206004820152602a60248201527f4f6e6c792070726f64756374206f776e65722063616e20706572666f726d20746044820152693434b99030b1ba34b7b760b11b6064820152608490fd5b506002546004351115612036565b3461018d5760208060031936011261018d57600435606060806040516127d481613500565b60008152828582015260006040820152600083820152015280151580612911575b156128d5576000526009815260406000206040519161281383613500565b81548352600192612825848401613bd2565b9180820192835260018060a01b0393846002820154166040840190815261285a60046003840154936060870194855201613698565b926080850193845260405197889682885260c08801965183890152519560a0604089015286518091528260e0890197019260005b8281106128bf57505050505094610d9294955116606086015251608085015251601f198483030160a08501526135ec565b845189528b99509781019793810193830161288e565b60405162461bcd60e51b815260048101839052601460248201527310985d18da08191bd95cc81b9bdd08195e1a5cdd60621b6044820152606490fd5b506003548111156127f5565b3461018d57604036600319011261018d576004356001600160401b03811161018d573660238201121561018d5780600401359061295982613573565b906129676040519283613552565b828252602082016024819460051b8301019136831161018d57602401905b828210612f31575050506024356001600160401b03811161018d576129ae9036906004016135a5565b9060018060a01b0360015416604051630f39439760e41b8152602081600481855afa9081156106c557600091612efd575b5060405163c9e18ba960e01b815233600482015260248101919091529060209082908180604481015b03915afa80156106c557612a2391600091612ede57506137be565b805115612e895760649283825111612e465760405180602081019283855190919060005b818110612e2d57505050612a6d916014913360601b815203600b19810184520182613552565b5190209182600052600a60205260ff60406000205416612de9576000925b8251841015612ba057612a9e8484613bb1565b5160005260046020523360018060a01b036003604060002001541603612b51576001840180851161176c575b8351811015612b4057612add8585613bb1565b51612ae88286613bb1565b5114612afc57612af790613830565b612aca565b60405162461bcd60e51b815260206004820152601a60248201527f4475706c69636174652070726f6475637420696e20626174636800000000000060448201528690fd5b5092612b4b90613830565b92612a8b565b60405162461bcd60e51b815260206004820152602260248201527f416c6c2070726f6475637473206d7573742062656c6f6e6720746f2063616c6c60448201526132b960f11b81870152608490fd5b82612bac600354613830565b918260035560405193612bbe85613500565b8385526020850190838252336040870152426060870152608086015283600052600960205260406000209085518255518051906001600160401b03821161140d57600160401b821161140d576020906001840154836001860155808410612dc9575b500160018301600052602060002060005b838110612db5575050505060048160026080930160018060a01b036040890151166001600160601b0360a01b82541617905560608701516003820155019401519384516001600160401b03811161140d5780602096612c90845461365e565b601f8111612d85575b508790601f8311600114612d2157600092612d16575b50508160011b916000199060031b1c19161790555b600052600a83526040600020600160ff19825416179055516040519081524283820152817fb46ab6677d4983bd3f65644c6ed72b9157cdc869b926f9f3f8c76242251c185560403393a3604051908152f35b015190508780612caf565b60008581528981209350601f198516905b818110612d6e5750908460019594939210612d55575b505050811b019055612cc4565b015160001960f88460031b161c19169055878080612d48565b92938a600181928786015181550195019301612d32565b612daf908560005289600020601f850160051c8101918b86106114da57601f0160051c019061384b565b88612c99565b600190602084519401938184015501612c31565b612de390600186016000528484600020918201910161384b565b88612c20565b60405162461bcd60e51b815260206004820152601e60248201527f4475706c696361746520626174636820616c726561647920657869737473000060448201528490fd5b8251845285945060209384019390920191600101612a47565b8360405162461bcd60e51b815260206004820152602060248201527f42617463682073697a652065786365656473206d6178696d756d206c696d69746044820152fd5b60405162461bcd60e51b815260206004820152602760248201527f4261746368206d75737420636f6e7461696e206174206c65617374206f6e65206044820152661c1c9bd91d58dd60ca1b6064820152608490fd5b612ef7915060203d6020116106be576106b08183613552565b85610f07565b90506020813d602011612f29575b81612f1860209383613552565b8101031261018d5751612a086129df565b3d9150612f0b565b8135815260209182019101612985565b3461018d57604036600319011261018d57612f5a6134bc565b6001600160a01b031660009081526008602052604090208054602435919082101561018d57602091612f8b916134d2565b90546040519160031b1c8152f35b3461018d57604036600319011261018d57600435602435600681101561018d578115158061325c575b612fcb90613ac7565b8160005260209160048352612fea60ff600b6040600020015416613b0c565b806000526004835260018060a01b0380600360406000200154163314906001541690604051631d6c8e3f60e21b81528581600481865afa9081156106c55760009161322f575b50604051632474521560e21b8082526004820192909252336024820152908682604481875afa9182156106c557600092613210575b50811561315c575b5061307f925081156131545750613b50565b8060005260048352604060002091600983019360ff855460081c16936006851015610d0757828514613103576130ba836130d595969761387a565b600d429101556130cd604051809661374b565b84019061374b565b4260408301527fdd0fc8e29d62ab161c1aa45daf89d3b7862bd58077e7219e3da7cd02570c1b3a60603393a3005b60405162461bcd60e51b815260048101839052602360248201527f53746174757320697320616c72656164792073657420746f20746869732076616044820152626c756560e81b6064820152608490fd5b9050856105bd565b6040516322305eeb60e11b815291508682600481875afa9081156106c55787926000926131dd575b5060405190815260048101919091523360248201529283908180604481015b03915afa80156106c55761307f926000916131c0575b508661306d565b6131d79150863d88116106be576106b08183613552565b866131b9565b8381949293503d8311613209575b6131f58183613552565b8101031261018d57905186916131a3613184565b503d6131eb565b613228919250873d89116106be576106b08183613552565b9087613065565b90508581813d8311613255575b6132468183613552565b8101031261018d575186613030565b503d61323c565b50600254821115612fc2565b3461018d57604036600319011261018d57602061328e6132866134a6565b600435613d33565b6040519015158152f35b3461018d5760208060031936011261018d57600154604051631d6c8e3f60e21b815260048035926001600160a01b031691908490829081855afa80156106c5578491600091613431575b50604051632474521560e21b815260048101919091523360248201529182908180604481015b03915afa80156106c557613323916000916134145750613a61565b80151580613408575b61333590613ac7565b806000526004825261335160ff600b6040600020015416613b0c565b80600052600482526040600020600b8101805460ff8160081c166133c357610100600160b01b0319163360101b62010000600160b01b031617610100179055600d429101557f6e71133e2ae9d1c55c944361398075b7d4201e02223b9dcb04749d92f71e10c6604051924284523393a3005b60405162461bcd60e51b815260048101869052601860248201527f50726f6475637420616c726561647920617070726f76656400000000000000006044820152606490fd5b5060025481111561332c565b61342b9150843d86116106be576106b08183613552565b84610940565b82819392503d831161345b575b6134488183613552565b8101031261018d575183906133086132e2565b503d61343e565b3461018d57600036600319011261018d576001546040516001600160a01b039091168152602090f35b3461018d57600036600319011261018d576020906003548152f35b602435906001600160a01b038216820361018d57565b600435906001600160a01b038216820361018d57565b80548210156134ea5760005260206000200190600090565b634e487b7160e01b600052603260045260246000fd5b60a081019081106001600160401b0382111761140d57604052565b60c081019081106001600160401b0382111761140d57604052565b61022081019081106001600160401b0382111761140d57604052565b90601f801991011681019081106001600160401b0382111761140d57604052565b6001600160401b03811161140d5760051b60200190565b6001600160401b03811161140d57601f01601f191660200190565b81601f8201121561018d578035906135bc8261358a565b926135ca6040519485613552565b8284526020838301011161018d57816000926020809301838601378301015290565b919082519283825260005b848110613618575050826000602080949584010152601f8019910116010190565b6020818301810151848301820152016135f7565b604090600319011261018d576004359060243590565b80548210156134ea5760005260206000209060021b0190600090565b90600182811c9216801561368e575b602083101461367857565b634e487b7160e01b600052602260045260246000fd5b91607f169161366d565b90604051918260008254926136ac8461365e565b90818452600194858116908160001461371b57506001146136d8575b50506136d692500383613552565b565b9093915060005260209081600020936000915b8183106137035750506136d6935082010138806136c8565b855488840185015294850194879450918301916136eb565b9150506136d694506020925060ff191682840152151560051b82010138806136c8565b906004821015610d075752565b906006821015610d075752565b90604060031983011261018d5760043591602435906001600160401b03821161018d57613787916004016135a5565b90565b80548210156134ea576000526006602060002091020190600090565b9081602091031261018d5751801515810361018d5790565b156137c557565b60405162461bcd60e51b815260206004820152603760248201527f557365722063616e6e6f7420706572666f726d207468697320616374696f6e2060448201527f2d20766572696669636174696f6e2072657175697265640000000000000000006064820152608490fd5b600019811461176c5760010190565b6004821015610d075752565b818110613856575050565b6000815560010161384b565b906004811015610d075760ff80198354169116179055565b906006811015610d075761ff0082549160081b169061ff001916179055565b90815491600160401b83101561140d57826122b19160016136d6950181556134d2565b8054600160401b81101561140d576138db90600192838201815561378a565b929092611d1657805183546001600160a01b03199081166001600160a01b03928316178555602080840151858701805490931693169290921790556040820151600285015560608201518051909360038601926001600160401b03831161140d57613946845461365e565b601f8111613a0e575b5080601f841160011461399f57509180809260a0969594600598600094613994575b50501b916000199060031b1c19161790555b608081015160048501550151910155565b015192503880613971565b91939495601f1984168660005283600020936000905b8282106139f7575050916005979593918560a0989694106139de575b505050811b019055613983565b015160001960f88460031b161c191690553880806139d1565b8088869782949787015181550196019401906139b5565b613a38908560005282600020601f860160051c8101918487106114da57601f0160051c019061384b565b3861394f565b600260005414613a4f576002600055565b604051633ee5aeb560e01b8152600490fd5b15613a6857565b60405162461bcd60e51b815260206004820152603160248201527f416363657373436f6e74726f6c3a2073656e64657220646f6573206e6f74206860448201527061766520726571756972656420726f6c6560781b6064820152608490fd5b15613ace57565b60405162461bcd60e51b8152602060048201526016602482015275141c9bd91d58dd08191bd95cc81b9bdd08195e1a5cdd60521b6044820152606490fd5b15613b1357565b60405162461bcd60e51b815260206004820152601560248201527450726f64756374206973206e6f742061637469766560581b6044820152606490fd5b15613b5757565b60405162461bcd60e51b815260206004820152602c60248201527f4f6e6c79206661726d6572206f722061646d696e2063616e20706572666f726d60448201526b103a3434b99030b1ba34b7b760a11b6064820152608490fd5b80518210156134ea5760209160051b010190565b9190820180921161176c57565b9060405191828154918282526020928383019160005283600020936000905b828210613c07575050506136d692500383613552565b855484526001958601958895509381019390910190613bf1565b6001600160a01b03166000908152600860205260408120929392909190613c4790613bd2565b80519485831015613cf557613c5c9083613bc5565b91858311613ced575b808303928311613cd957613c7883613573565b93613c866040519586613552565b838552601f19613c9585613573565b013660208701375b838110613cac57505050509190565b80613cc3613cbd613cd49385613bc5565b85613bb1565b51613cce8288613bb1565b52613830565b613c9d565b634e487b7160e01b84526011600452602484fd5b859250613c65565b50505060405190602082018281106001600160401b03821117613d1f576040528082523681379190565b634e487b7160e01b82526041600452602482fd5b80158015613d67575b613d60576000908152600760205260409020546001600160a01b0391821691161490565b5050600090565b506002548111613d3c56fea2646970667358221220a738bb4005c51840631d44de267b989ba7f617588ab34ce730c1a839151ba5bc64736f6c63430008140033",
  "linkReferences": {},
  "deployedLinkReferences": {}
}